:020000041000EA
:4000000000400208230100100D00000085010010000000000000000000000000000000000000000000000000000000008101001000000000000000008101001081010010E9
:400040008101001081010010810100108101001081010010810100108101001081010010810100108101001081010010810100108101001081010010810100108101001060
:400080008101001081010010810100108101001081010010810100108101001081010010810100108101001081010010810100108101001081010010810100108101001020
:4000C00010B5064C2378002B07D1054B002B02D0044800E000BF0123237010BD3C06000800000000882F0010084B10B5002B03D00749084800E000BF07480368002B00D173
:4001000010BD064B002BFBD09847F9E70000000040060008882F0010E8000008000000007047FFF7FDFF72B60F4C104DAC4209DA21686268A368043B02DBC858D050FAE7F2
:400140000C34F3E70A490B4A0020521A02DD043A8850FCDC084809490860BFF34F8F00F005F900F01DF8FEE78C2F0010A42F00103C060008140800080000000808ED00E0F9
:40018000FEE7FEE700B504207146084202D0EFF3098001E0EFF30880043001F009FBFEE710B562B6014800F067F9FEE70000081010B5002001F078F810BDC04670B56249A9
:4001C000E0239B00CB580F2213401A00D0329200525807210A40032A05D0042A06D0002A12D15A4814E05A4A106811E01A00C0329200554952581F210A40112A06D0132A7C
:4002000004D0FA20C00103E0524801E080200002002B36D14C4BB222D2009A5801211140B125ED005A59120F032422405B591B0F1C4207D0444C63591B0F03242340012BDC
:4002400002D102E0012300E00023002B01D0002901D1032A4BD13C4BB022D2009D58AD03AD0B3D495958C904C90C9C58240E01231C40013401F010FE6843210001F00CFE60
:4002800035E0012B33D1304BC822D2009A5801251540C024E4001A59120F03210A401B591B0F194207D028490B591B0F03210B40012B02D102E0012300E00023002B01D049
:4002C000002D01D1032A12D11F4DC022D200AB587F210B40A958090A1F263140AC58240C3440584301F0D8FD210001F0D5FDE0239B00154AD3581B0903221340D840144CEE
:400300006060164B1D692D0AFC32154001351969090E013101F0C0FDA060290001F0BCFD0500E06020610E4BC0180E4901F0B4FD20750D4BE818FA21890001F0ADFDA061BD
:40034000C003E06170BDC0460000264000127A00C000000800366E0184050000000021403F420F0040420F00E703000010B5284801F08CFD274CB022D200A3585B005B0873
:40038000A350E0218900635830208343635080235B04A350204A214BE250A02292010433E250FF221E4BE25001F05EFDC0225200A35801218B43A35000F04CFAFFF7FEFE3F
:4003C000B0235B055B78002B04D0B0235B055B78DBB200E02123212B03D1124B0022DA605A60114C22008021042000F003FD2000103000F097FD0D4B1A685123D35C002BEE
:4004000002D00B4800F004FE00F0CCFB10BDC046D02E00100000264001000200840500008C050000E00023405806000810080008102000108023024AD35803201840704735
:400440000000214010B501F044FA084980228C58074B2340074C23438B508823034AD358DB06FAD501F039FA10BDC04600002140FCFF00000100FA0570B50500830504D05B
:40048000E821FF310F4801F065F901F022FA0400FFF7D0FF032801D1FFF7D4FF0A4AB0239B00D55080215058084B03400848034353508823044AD358DB06FAD5200001F0DD
:4004C0000CFA70BD4420001000002140FCFF00000300FA05FEE7C04680221206044B1A600422044B1A60044A044B1A607047C04600001D4100031D4101001180000E1F4107
:4005000010B50A00002101F05CFD10BD10B501F04FFD10BD30B587B0BB49A022D2008B58032083438B50B94A116808688823CB58C3181868B6490840186013681868842413
:400540001B59C01803681B021B0A80256D042B430360106805680359EB1818680140196013683E229A5C002A06D0A748E02189004258753CA24342503E229A5C002A06D0BB
:40058000A148E021890042583024A24342503E229B5C002B07D09C49E02292008B588020000603438B500021012000F0AFFE0021022000F0ABFE0021032000F0A7FE002132
:4005C000042000F0A3FE0021002000F09FFE01A8904903000A0032CA32C312CA12C300F0C3FE002802D00420FFF774FF86498A4A8B588020000603438B50884800F070FF93
:40060000002802D00420FFF765FF7F4C844BE158844A0A40E250E158834A0A40E250E25880252D062A43E250043BE1587F4A0A40E250E1587E4A0A40802189010A43E25040
:40064000E258802109020A43E2507A4A11687A4B0B40802149000B431360002001F07AFB764BE2581543E550E158012291430A43E2506421002001F0B3F8644B1B683F228C
:400680009A5C052A06D970229A5C01210A406C49986842509A6874215B5AD21851685C4B0B408021C9000B435360584B1B6873229A5C0320904070229A5C72241C5D15005F
:4006C000A5402843012422400243802000060243986842509A6852583F229A5C132A06D970229A5C02210A405649986842509A6874215B5AD2189168454B0B408021C900A8
:400700000B439360414B1B6873229A5C0320904070229A5C72241C5D1500A5402843022422400243802000060243986842509A6852583F229A5C372A0AD97122985C6F3A2E
:4007400082401100032282400A403F49986842509A6878201B5AD21811683C4B0B40C621C9010B43136029490A689468135AE3181A68803082431A600B6873229A5C0324C7
:40078000210091400A007021585C0231595C8840104371229A5C02219140944022000A400243802109060A438021C900986842509A6852583F229A5C392A03D90021244A29
:4007C000986881509A6874215B5AD2181168104B0B408021C9000B4313600C4B1A687323D05C703B834018007023D35C7224145DA340034380200006034390684350936823
:400800005B5807B030BDC0460000264010080008FF00FFFF5C200010087F0000400D030004050000FEFCFFFFFFFF00FFFFF0FFFFFF8FFFFF00002740FFFCFFFF0C0500008D
:40084000140C00004C0C0000DC0C0000FF0000FFE40C000070B58AB09621002000F0C0FF00F096FF002814D100F082FFC0235B005D4AD358DB0705D411005C4A8B585B0082
:400880005B088B505849594A8B588020000603438B50012001F0F6F9554A516C554B0B40E82189010B435364536C1B0AFF2213403A2B07D14E4A516C4F4B0B40E8218901CA
:4008C0000B435364002300224C494D4801F060FA012300228021C905312001F059FA002300224849484801F053FA012300224749302001F04DFA002300224549454801F09C
:4009000047FA012300224449444801F041FAFFF701FE434A434B1A6000240CE0620012195300414AD318198B9A8AD88A00041043FFF7E6FD01340B2CF0D900240AE06200FC
:4009400012199300384AD3185A6E196ED86DFFF7DDFD0134112CF2D9344A1368812149000B43136001AC324D22002B00343343CB43C243CB43C243CB43C221002D4800F067
:4009800019F922002B00583323CB23C223CB23C223CB23C22100284800F00CF924220021200001F00EFB6023E3602100234800F001F924220021200001F003FB4023019324
:4009C00021001F4800F0F6F824220021200001F0F8FA0423019321001A4800F0EBF8FFF77BFD0AB070BDC046000026400C05000000002740FF00FFFFFFC5FFDF060E0040EA
:400A0000160E0000050E0040150E0000010000400F0E0040050E0000000600402A0600000300FA05F00121405C200010007934405C2100108002324000033240800332403D
:400A40008004324000053240214B984230D00ED8402831D004D800281FD010282AD031E080282BD080235B00984229D02AE0194B984229D007D8A0231B0698420DD0164BAE
:400A8000984212D01EE0154B98420AD0144B984209D0144B984215D101E0002016E0124814E0124812E0124810E0A020C0030DE007480BE00F4809E00F4807E00F4805E0F8
:400AC000034803E00E4801E0A420C0037047C04606005200010000F0090000A0040000F0050000F0030000F001005200020052000300520001005000020050000500520089
:400B0000FF00520070B5124B1A683123D35C002B04D1C421FF310F4800F01CFE0C4B1D682C00B423EB582A6A944663441B68002B0BDB094B1868FFF787FF6B6801229A605C
:400B400063689B68002BFBD100E0044870BDC04610080008082B0010E80700080200500010B50D4B1861002805D002230370FD33437000234380094B1B6850229A5C002A48
:400B800008D051229B5C002B04D04F3A0449002000F0F8FA10BDC046E8070008100800086101000810B502481430FFF7D9FF10BDE807000870B505000C0000285DD000292F
:400BC0005DD0FF230A689A4303D099212D4800F0C1FDFF2322699A4303D09A21294800F0B9FDA3685B0D03D09B21264800F0B2FD63685B0A03D09C21224800F0ABFDE3695B
:400C00005B0F03D09D211F4800F0A4FD236A5B0F03D09E211B4800F09DFD1B4A11688B69EB1ADB0949691B01CB18216829607D211068415C6918E06808607E211068415C35
:400C40006918206908607F211068415C6918606908607C211068415C6918A06808606168A961116880228A5CAD18A2692A60E2691A60226A5A60002002E0044800E0034846
:400C800070BDC046482B00101008000801005A0070B504000D000A4B1A68B423D3581B181B68002B0ADA0B0C03D00649064800F051FD2D042D0C6560002000E0034870BDC3
:400CC00010080008D5020000C82B001001008A0070B505000C000368002B01DA002300E0084B002B0BD1EA60230C03D00649074800F030FD2404240CAC60002000E00148B7
:400D000070BDC04601008A00BB020000C82B001070B505000C1E03D19921084800F01AFD074B1A68B423D3585B191B68002B03DAEB682360002000E0024870BD082C001096
:400D40001008000801008A0070B504000D00234B1A683123D35C834236D9002936D00B68DB0635D13123D35C984204D3C421FF311B4800F0EFFC194B1B681A6AB0215B5A4A
:400D80005C431419174E34602B68DA080021686801F017F900212000FFF77AFF3468002D03D111490E4800F0D5FC2A0000212000FFF78EFF00280DD10A4B18680021FFF769
:400DC00067FF002808D108E0084806E0074804E0064802E0064800E0054870BD10080008C82B0010000800089303000003018A0001018A0010B50400002A17D1002915D196
:400E0000124B1A683123D35C984204D3C421FF310F4800F09FFC0D4B1B681A6AB0215B5A5C4314190B4B1C6000200EE0002A09D0002909D0074B59609A60191D2000FFF7C1
:400E400083FF02E0044800E0034810BD10080008C82B00100008000803018A00F0B583B00D001C4B1B68DC68236883422DD947097B01C01A012383401E00002903D100F008
:400E800028FD019001E000230193124B18680368002B01DA002300E00F4B002B0ED16368BF00DF193B68334203D0B3433B60002400E00A4C0021FFF7EBFE00E0084C002D76
:400EC00004D1019800F009FD00E0064C200003B0F0BDC0460008000801008A00020188000301880004018A000A4B1B68DA68136883420BD943095901401A012181405268BA
:400F00009B009B580B4203D0034802E0034800E003487047000800080101880004018A0000018800034B1B68002B01D1014B18607047C0460C080008F0B5474680B4040022
:400F40000F0090461E002D4B1B68002B03D1B5212B4800F0FFFB294B1B682C2060431C18FF22150035402560330A13406360360CA660244B1A683123D35C9D4204D3C4214D
:400F8000FF31214800F0E6FB1E4B1A68B023D35A6B43116A8C466344236166683223D35C9E4204D3E021FF31174800F0D3FB154B1B681D6A80367601AD196561A668330CEF
:400FC00004D0FF214900104800F0C4FB330C03D00E490D4800F0BEFB3604330C1E43AE604346E36127620023A361069B002B02D000229B5EA38104BC9046F0BD0C080008A5
:40100000482C001010080008C82B0010FF010000F0B58FB0041E03D15221294800F09AFB6368032B03D95421254800F093FBE36A002B03D15821224800F08CFB236B002B32
:4010400003D159211E4800F085FB07AA1300210061C961C321C921C302AD290023001433C1CBC1C141CB41C10821535E0CAE3380144B1B6836215B5E07998C466344B37078
:40108000089B0D930B9B0A980096A26AE16AFFF753FF2B69E868002200920021FFF74CFF216B300000F0E8FA0023F25E002A05DB1F231A401E3B9340034A13600FB0F0BD77
:4010C000482C00101008000800E100E0F8B505000F0016001C00002A03D1FD21224800F039FB224B1B68002B03D1FE211E4800F031FB1E4B1B682C21280048431818794386
:401100005918012213004D68AB401B044568AA4015000269002A20D08F69002F1FD11268002A01DA002200E0114A002A19D132681204120C134333600369DE6001238B61A0
:401140004C6204692B0C03D00A490B4800F002FB2A04120CA260002004E0084802E0084800E00748F8BDC046482C00100C08000801008A00BB020000C82B001004028A007E
:4011800007028A0070B504000D0016000F4B1B68002B04D1AF2149000D4800F0DBFA0B4B1B682C2060431C18236A002B04D1B1214900074800F0CEFAE369B34204D9236AEA
:4011C000B6009D51002000E0024870BD0C080008482C00100A028A0070B582B0040000230193002804D1D221FF312D4800F0B2FA2369002B04D1E9214900294800F0AAFA77
:401200006369002B04D1D421FF31254800F0A2FA236A002B04D1EA214900214800F09AFA6269D5682B0C24D01B041360136820691C4B1A68B423D358C3181B68002B18DAC7
:4012400001A9FFF765FD00280ED1019803681E0CFF221340E269934207D29B00226AD358002B02D0984700E0002631002069FFF70FFD2D042D0C0FD063691D601B68636AF8
:40128000002B03D098470023636203E0A36A002B00D098470023A36163691B6802B070BD482C00101008000810B50400084B1B68002B04D1B221FF31064800F04BFA044B32
:4012C0001B682C2060431818FFF786FF10BDC0460C080008482C001010B50400094B1B689B6CC340DB0703D4BE21074800F032FA044B1B681B691034A402E3580F201840AF
:4013000010BDC04610080008882C0010134B1A683C23D35C83421DD9042904D94B1EFF3B9BB2132B18D8FF290CD91F2319400C4A0300C0339B009950D030800004238350B3
:4013400000200AE007231940D0308000044BC150002002E0034800E002487047100800080000264001004A0070B5041E03D14A494A4800F0EFF9B023DB00494AD358002B52
:4013800000DA87E0474B22689A4203D94649434800F0E0F923689B039B0BE279002A02D08022520400E000221343B022D2003C498B50A2883D4B9A4204D98C21890037489B
:4013C00000F0C8F922893A4B9A4203D93949334800F0C0F9A388DB04D90C23891B04364A13400B43354A2E498B50A37A0F2B04D98E218900294800F0ADF9E37A0F2B03D91C
:401400002F49264800F0A6F9A289284B9A4203D92C49224800F09EF9A37A0F211940E27A1201FF2313400B43A289120226490A401343A27B1207C02189050A401343B1223D
:40144000D20017498B50A379042B03D91F49134800F080F9228A164B9A4204D9912189000E4800F077F90E4819494558194B1D40A3791B02E022D20013402B434350455841
:40148000154B1D40238A1B040B4A13402B434350002000E0114870BD1F020000C82C001000002640FFFF030029020000FF1F0000FF010000310200000000FF0184050000E3
:4014C000390200003A02000000FF1F00430200008C050000FFF8FFFFFFFF00FE03004A0070B505003149324A8B588020000603438B502C0003E0012000F020F9013CB2232E
:40150000DB002A4AD3585B0701D4002CF3D12749B122D2008858274B03408020800503438B50002D01D0002C0CD02049B022D2008B588020000603438B5003E0012000F069
:40154000FDF8013CB223DB00184AD358DB0701D4002CF3D1002D01D0002C08D01349B122D2008B58C020800503438B5013E00F4BB121C90058580F4A02408020800502434C
:401580005A5008395A58520052085A5008495A58520052085A50002D03D0002C03D0002002E0002000E0044870BDC046000026408C050000FFFFFFCF02004A0070B5050026
:4015C0000C001A4B1B6828229A5C012A15D1820807211000884327D19200AD1AED00FF20A8401B6820339A181168AC4023004B40184004004C40146016E03A229B5EDBB205
:40160000994203D176210A4800F0A4F8074B1B681B68072215408022120615438022920194466444A400E55070BDC04610080008502D001070B504000D000B4B9A680B4B4A
:401640009A420CD1002904D13821FF31084800F081F81034054BA400E058E55003E01034A400044BE05870BD00ED00E000000008502D001000000010F0B5474680B482B043
:40168000061E01914AD04368032B03D93221264800F060F80023F05E002804DBB178FFF78DFF002400E0214C0023F15E7368002912DB88081E4FC0308000C55903221140A4
:4016C000C900FC3290468A4095439A01434613408B402B43C35116E089B20F220A40083A92080632920013481018476803221140C900FF252A008A4097439A012B001340E9
:401700008B403B4343600B4B9A680B4B9A4206D10023F05E0199FFF78DFF00E0034C200002B004BC9046F0BD502D00100100560000E100E000ED00E00000000810B5034BFE
:401740001B78584300F0BCF810BDC046D400000801BEFEE770B50D00044C18220100200000F037FCA5610020FFF7F2FF00060008054B802212069A649B6C002B01DB0020F3
:4017800000E002487047C0460000274003004600054B8022120198585B68FF221A4202D08023DB021843704700002640FEE7C04610B50A4B0268DA6142681A6282685A621D
:4017C000C2689A620269DA6242691A6382695A63C2699A63FFF7EAFF10BDC04600060008F0B5474680B4002801D0192300E064238B429B415B42304D2C682268A826A45BB4
:40180000A41822680327BA433B401A4322602C682268A45BA2181668284CA046264016602C682668AA229446A25A96193268BA43134333602A6813686546525BD3181A6891
:40184000444614401C60002805D010291BD921291BD8012024E0184B1B6855229A5C914215D956229A5C914213D957229A5C914211D958229A5C91420FD959229B5C99429D
:401880000DD804200CE000200AE0022008E0002006E0012004E0022002E0032000E00520054A1268526813680F218B430343136004BC9046F0BDC04610080008FFFCFFFFD1
:4018C0000230800803D001300238FCD1C046C0467047EFF3108072B6704780F31088704710B5B0235B059B899BB2002B04D0B0235B059B899BB201E080235B00802252006E
:40190000934215D1184C23681968683A9B58C9180B680F208343963A13430B6021680C689C23CB58E318196881430A431A6019E00D4C2368196898229B58C918B020400526
:401940000A4BC2580A4B13400A681343C022920013430B60226811689C23D358CB18054A82581A6010BDC0461008000848180000FFFCFFFF4418000030B5B0235B059B89FC
:401980009BB2002B04D0B0235B059B899BB201E080235B0080225200934215D1184C23681968683A9B58C9180B680F208343953A13430B6021680C689C23CB58E318196870
:4019C00081430A431A6019E00D4D2B68196898229B58C918B0246405C12040012258094B13400A681343C022920013430B602A6811689C23D358CB1822581A6030BDC0462B
:401A000010080008FFFCFFFFB0235B059B899BB2002B04D0B0235B059B899BB201E080235B008022520093420DD1104B1B681A6898215B58D21811680D4B0B40C021C90143
:401A40000B43136011E0094B1B68196898229B58C918084BB0225205D258074B13400A681343C022920013430B60704710080008FF8FFFFF18180000FFFCFFFF30B5B02342
:401A80005B059B899BB2002B04D0B0235B059B899BB201E080235B008022520093420DD1134B1B681A6898215B58D2181168114B0B408021C9010B43136018E00C4D2B6843
:401AC000196898229B58C918B02464050A4822580A4B13400A681343C022920013430B602A6811689C23D358CB1822581A6030BD10080008FF8FFFFF4C180000FFFCFFFF67
:401B000010B5B0235B059B899BB2002B04D0B0235B059B899BB201E080235B0080225200934217D10020FFF7D7FBB0235B055B78002B04D0B0235B055B78DBB200E0212365
:401B4000222B03D8002803D1013004E0012002E0002000E0012010BDF8B50700012803D93D493E48FFF7F6FDB0235B055B78002B04D0B0235B055B78DBB200E021239DB282
:401B8000B0235B059B899BB2002B04D0B0235B059E89B6B201E0802676000020FFF79CFB002814D180235B009E4212D1222D12D82B4B1B685C682B4821582B4B19403B0656
:401BC0008022520413400B432350002404E0274C02E0264C00E0254C80235B009E4201D1222D03D880235B009E4232D01C4B1A683123D35C002B04D1C421FF311C48FFF724
:401C0000A9FD174B1B681D6A80235B009E4203D1002F05D0174A06E0002F03D0164A02E0164A00E0164A01212800FFF751F800280FD10B4B1A68B423D3585B191B68002B24
:401C4000F7DBEB681B0E1B06A0221206934200D100242000F8BDC0464C0A0000942D00101008000818F00000FFFFFFFE04004200082B0010010100300300000C0100003031
:401C80000100000CF8B50500012804D9822109012948FFF75FFDFFF733FF002849D0FFF718FE0700002D11D10021244B244AD150E823DB00B0225205D65CF6B20120FFF745
:401CC0004BFF041E19D1FFF70BFE16E0B02252051C4BD0581A4B194958501B49565CF6B21A481A581F218A4314390A431A500320FFF724FDFFF7C2FE0024002C15D1104950
:401D0000124A8B581F20834306401E438E50002D02D1FFF779FE08E00720FFF70FFDFFF72BFE0020FFF718FF04003800FFF7D5FD00E0074C2000F8BD942D0010307F000084
:401D40000000264010180000410700001CFF000003004200042805D10B4A116804230B4313600FE0094B1A681168A023D358CB180006C022920410401860034A1368042133
:401D80008B4313607047C04610E000E010080008F0B54F464646C0B483B006000D0000921F00012B03D95B212B48FFF7D3FC330B03D05C212848FFF7CDFC284B1A686E2305
:401DC000D35A9B08013B264A13432A009A4301D16B0003D45D212048FFF7BCFC32006A40F0231B011A40141E2FD1FFF772FD01901A4B18686C23C15A83689C4661446E2343
:401E0000C35A9A08013A2A40920090466A22825A15402D0A5D432A00424455182A68920A9202FF231E40009B002B01D00134FF3426437F0280239B001F403E4316432E60F5
:401E40000198FFF74AFD002000E0064803B00CBC90469946F0BDC046D42D001010080008000F00400100CE000749C02252008B589B009B088020C00503438B508B5880205E
:401E8000000603438B50704700002640014B18607047C04610080008002243088B4274D303098B425FD3030A8B4244D3030B8B4228D3030C8B420DD3FF22090212BA030C27
:401EC0008B4202D31212090265D0030B8B4219D300E0090AC30B8B4201D3CB03C01A5241830B8B4201D38B03C01A5241430B8B4201D34B03C01A5241030B8B4201D30B03E7
:401F0000C01A5241C30A8B4201D3CB02C01A5241830A8B4201D38B02C01A5241430A8B4201D34B02C01A5241030A8B4201D30B02C01A5241CDD2C3098B4201D3CB01C01AE2
:401F4000524183098B4201D38B01C01A524143098B4201D34B01C01A524103098B4201D30B01C01A5241C3088B4201D3CB00C01A524183088B4201D38B00C01A52414308C9
:401F80008B4201D34B00C01A5241411A00D20146524110467047FFE701B5002000F006F802BDC0460029F7D076E770477047C046002310B59A4203D0CC5CC4540133F9E799
:401FC00010BD03008218934202D019700133FAE77047030030B5002A0DD00C7801335D1E013A2C700131002CF5D19A189A4202D01C700133FAE730BDF8B5C046F8BC08BC45
:402000009E467047F8B5C046F8BC08BC9E4670470300000001000000010000000000000005036000040000000100000000000000010000000604600008000000C807000883
:40204000B101001073797374656D5F70736F63365F636D30706C75732E630000F4010000140004010A00090508000000630100000020344074008020344074000022344043
:402080007400802234407400002434407400802434407400002634407400802634407400002834407400802834407400002A34407400802A3440740000213440D82100100C
:4020C0009000000000233440682200109000000000253440F822001090000000002734408823001090000000002934401824001090000000002B3440A824001090000000D2
:4021000000603440382500107C00000080603440B42500107C00000000613440302600107C00000080613440AC2600107C00000000623440282700107C00000080623440B8
:40214000A42700107C00000000633440202800107C000000806334409C2800107C00000000643440182900107C00000080643440942900107C00000000653440102A00104D
:402180007C000000806534408C2A00107C00000003000000000000000000000068000000000000000000000000000000121200000000000000000000000000000000000079
:4021C000000000BA0000000000000000000000000000000000001D1D000000000000000000000000FFFF6FFFFFFFFFFFFFFFFFFFFFFFFFFFFFFFFFFFFF000000FFFFFFFF94
:40220000FFFFFFFFFFFFFFFFFFFFFFFFFFFFFFFFFF000000000000000000000000000000000000000000000000000000FFFFFFFFFFFFFFFFFFFFFFFF111111111111111133
:4022400011111111111111111111111111111111111111111111111111111111111111111111101111111111002010500000000000000000FFFFFFF7FFFFFFFFFFFFFFFF4B
:40228000FFFFFFFFFFFFFFFFFF000000F1FFFFFFFFFFFFFFFFFFFFFFFFFFFFFFFFFFFFFFFF000000000000001F0F0000000007001F001F000000000F0000F5FFFFFFFFFFD8
:4022C000FFFFFFFFFFFFEFFF11D11111111111111111111111111111111111111111111111111111111111111121111111111111011111111110111100000189000000007D
:4023000000000008FFFFFFFFFFFFFFFFFFFFFFFFFFFFFFFFFFFFFF5FFF000000FFFFFFFFFFFFFFFFFFFFFFFFFFFFFFFFFFFFFFFFFF0000001F001F001F061F001F00001F9F
:40234000001F0C1F0000000000000000FFFFFFFFFFFFFFFFFFFFF5FB1111111111111111111111111111111111111111111111111111111111011111111111111111111195
:402380001811111111111111000000600000000000000000FFFFFFF0FFFFFFFFFFFFFFFFFFFFFFFFFFFFFFFFFF000000FFFFFFFFFFFFFFFFFFFFFFFFFFFFFFFFFFFFFFFF66
:4023C000FF000000001F1F00001F0E1F1F000000001F1F00F00000000000F0F0FFFFFFFFFFFFFFF7FFFFFFFF111111110111011111111111111111111111111111111111C3
:402400001111111111111111111111111111111111111111111111110000216500000000000000C0FFFFFFFFFFFFFFFFFFFFFFFFFFFFFFFFFFFFFFFFFF000000FFFFFFFFD7
:40244000FFFFFFFFFFFFFFFFFFFFFFFFFFFFFFFFFF0000001F070000071F000C1F071F07001F1F000000000000000000FFDDFFFFFFFFFFFFFFFFFF3F1111111111111111F1
:40248000111111111111111111111111111111111111111111111111111111111111111111111110110111114000000800000000000000206FFF7F7F77FFFFFFFFFFFF5FE1
:4024C000F7FF0F0F5FFFFFFFF0000000FFFFFFFFFFFFFFFFFFFFFFFFFFFFFFFFFFFFFFFFFF000000000000000000001F1F07001F0000001F00F0000F05000000FFFFFFFF0E
:40250000FFFFFFFFFFFFFFF511111111111131111111111111111111111111111111111111111711111111111111112111411811111D9158111111E100000000000010005D
:402540001F1F1F1F1F1F1F1F1F1F1F1F1F1F1F1F1F1F1F1F1F1F1F1F1F1F1F1F1F1F1F1F000007050000000000000000000000000006000000000000FFBFFFFFFFFFFFFFB1
:40258000FEFFFFFF111111111111111111111111111111111111111111111111111111111111111111111111111111111115111111111D1100000000000020101F1F1F1F34
:4025C0001F1F1F1F1F1F1F1F1F1F001F1F1F1F1F071F1F161F1F1F1F1F1F1F1F000000001F0000000000000000001F00000000060000F076FFFFFFFFFFFFFFFFFDFFFFFF1B
:4026000011111111111111101111111111111111111111111111111111111111111111111111111191511111111D11111E1F711100000000000040001F1F1F1F1F1F1F1FEC
:402640001F1F1F0D1F1F1F1F1F1F0F1F1F1F1F1F1F1F1F1F1F1F1F1F1F00060407000E000000061F000C001F0070050000050000FFFFFFFFFFFFF7FFFFFFF3FF1111111168
:4026800011111111111111111111111111111111111111111D111111111111110171611E111111111111111D111D011E00000040000000101F1F1F1F1F060F1F1F1F1F1FC5
:4026C0001F1F1F1F1F1F1F1F1F1F1F1F1F081F1F1F1F1F1F000F0800000F1F0F0D00000000001F007650400000007070FFFFFFFFFFFFFFFFFFFFFFFF111111114111111173
:40270000111111111111111111111111111111111101111111D111111101111111E111B11F1111111E1D141D00000000000000401F1F1F1F1F1F011F1F1F1F1F1F1F1F1F99
:402740001F1F1F1F1F1F1F1F1F1F1F1F1F1F1F1F001F00001F00001F001F1F00001F1F000000000000000000FFFFFFFFFFFFBFFFFBFFFFFF11111117E1111111111111113E
:40278000111111111111111111111111111111111111111E11111111111111111F111111E11E111E00000000000000321F1F1F1F1F1F1F1F1F1F1F1F1F1F1F1F1F1F1F1F12
:4027C0001F1F1F1F1F1F1F1F1F1F1F1F0000070000000607061F0000000004070065000F0F000000FFFFFFFFFFFFFFFFFFFFFFFC111111111111111111111111111111119D
:40280000111111111111111111111110111111111110111111D1E111DE11D1111111111100000000000000001F1F1F1F1F1F1F1F1F1F1F1F1F1F1F1F1F1F1F1F1F1F1F1F75
:402840001F1F1F1F1F1F1F1F000000000000000000000000000000000000000000000000FFFFFFFFFFFFFFFFFFFFFFFF111111111111111111111111111111111111111118
:402880001111111111111111111111111111111111111111111111111111111100000000000000001F1F1F0A1F1F1F1F071F1F1F1F1F1F1F1F1F1F1F1F1F1F1F1F1F1F1F05
:4028C0001F1F1F1F00000000061F000000001F00070001000000000000007FFFFFFFFFFFFFFFFFFFFFFFF7FF111111111111111111111D1101111111111111111111111112
:40290000111111111411111111111E111D111111111111111111D00100000000000002801F1F1F1F1F021F1F1F1F1F1F1F1F1F1F1F1F1F1F1F1F1F1F1F1F071F1F1F1F1F07
:402940000E001F0000001F00070C0001001F1F040000000000000000FFFFFFFDFFFFDFFFFFFFFF6D1111111111111811111111111111111111111111111011111111111C88
:402980001111111111111F1111111111111111111111111000002000000000801F1F071F1F1F1F1F1F1F1F1F1F1F1F1F1F1F1F1F1F1F1F1F1F1F1F1F1F1F1F1F001F1F0010
:4029C000001F001F1F070D0000070C00F0000F000000F0F0FFFFFFFFFFFBFFFFFFFFFF3F1111111E11111111111111111111111111111111111111111111111141111111E7
:402A0000D11111E11D11111D11E111E111111D1100000000000000001F1F1F1F1F1F1F1F1F1F1F1F1F1F1F1F1F1F1F1F1F1F1F1F1F1F1F1F1F1F1F1F0E000000000F000035
:402A40000C000D0000080E000000000000000000FFFFFFFFFFFFFFFFFFFFFFFF1111111111111111111111111111111111111111111111111111111111111111111111F1EF
:402A800011111111111111111111111100000000000000011F1F1F1F1F1F1F071F1F1F1F1F1F1F051F1F1F171F1F1F1F1F1F1F1F1F1F1F1F0000000000070D00000000008F
:402AC0000000001F0000000600600000FFFFFFFFFFFFFFFFFFFFFFFF11111111D4111111111111111111111111111111111111111111111111111111E111111111E11E1145
:402B0000151111111E19111147656E6572617465645F536F757263655C50536F43365C70646C5C647269766572732F7065726970686572616C2F6970632F63795F6970634B
:402B40005F6472762E68000047656E6572617465645F536F757263655C50536F43365C70646C5C647269766572735C7065726970686572616C5C6770696F5C63795F6770D6
:402B8000696F2E630000000047656E6572617465645F536F757263655C50536F43365C70646C5C647269766572735C7065726970686572616C5C6770696F5C63795F67706E
:402BC000696F2E680000000047656E6572617465645F536F757263655C50536F43365C70646C5C647269766572735C7065726970686572616C5C6970635C63795F69706337
:402C00005F6472762E68000047656E6572617465645F536F757263655C50536F43365C70646C5C647269766572735C7065726970686572616C5C6970635C63795F69706323
:402C40005F6472762E63000047656E6572617465645F536F757263655C50536F43365C70646C5C647269766572735C7065726970686572616C5C6970635C63795F697063E8
:402C80005F706970652E630047656E6572617465645F536F757263655C50536F43365C70646C5C647269766572735C7065726970686572616C5C70726F745C63795F707217
:402CC0006F742E630000000047656E6572617465645F536F757263655C50536F43365C70646C5C647269766572735C7065726970686572616C5C737973636C6B5C63795F0F
:402D0000737973636C6B2E630000000047656E6572617465645F536F757263655C50536F43365C70646C5C647269766572735C7065726970686572616C5C737973636C6BAF
:402D40005C63795F737973636C6B2E680000000047656E6572617465645F536F757263655C50536F43365C70646C5C647269766572735C7065726970686572616C5C737980
:402D800073696E745C63795F737973696E742E630000000047656E6572617465645F536F757263655C50536F43365C70646C5C647269766572735C7065726970686572612A
:402DC0006C5C737973706D5C63795F737973706D2E63000047656E6572617465645F536F757263655C50536F43365C70646C5C647269766572735C70657269706865726112
:402E00006C5C747269676D75785C63795F747269676D75782E6300000000204000002440000000400000000000002340000030400000314000009F400000224000001040A9
:402E400002020202020202020210101D800017007500FF030602063604102000000000007FC0000000040000000000000019324B647D00804000080B100000000000FF01E0
:402E80002002001F00800004FF081018001000140018001C4044484C5000000008100000080000000400000004100000001200000421000000210000001600004011400225
:402EC000C41300138013A013200000001C0000000000214000002540000001400000344000002440000031400000324000001F410000234000001140010101010101010188
:402F000001101010800019005500F0000501053B04101C01010000000FC000000004000001010101011D3A57789600082000101208000000001F00000010000F00200002C4
:402F40003F06080E00080009000A000B24282C3034000000100000009000000088000000080000008000000004F0000000F00000400200002005A000D00100018001A00165
:402F80002000000010000000000000000000001000000008C0000000AC2F0010C0000008400500003C060008D80100000048E80100127A0000093D0000093D0000093D005F
:402FC00004000000A00F00000000D007E9000010C10000100000000010B50004400B27D0144B1A68146AB023D15ACA00531AE3181B68002BF4DA3E220F4B1A600F4A104B7F
:403000001A60104B0621A322D20099500E4A98509B58084B1A68106AB023D15ACA00531AC31800225A60084B064AD358002BFADA10BDC04610080008040126401E1F00003E
:4030400008012640000026401C05000010B54378FF2B20D100F01AFA04000F4B1A683123D35C042B04D8C421FF310C4800F026FA094B1A68116AB023D35A9B00CB18DB68C2
:403080005A68116801230B4313601368DB07FCD4200000F00BFA10BD10080008082B0010F0B585B001900291544B1A683123D35C002B04D1C421FF31514800F0FFF94F4BAC
:4030C0001B681E6AB4229A58971950229B5C002B77D000F0C3F9050003283CD1474B1A683123D35C062B04D8C421FF31444800F0E5F9424B1968B023CB5A5A00D2185300D9
:403100000A6A94466344B4228A58D3181B68002B23DB002000F0C2F93A4B98421FD03A4B1A6900230021012000F0A0F9002803D0364C17E0013400E00024002000F0AEF9D8
:40314000304B984202D0324B9C42F3D9304B9C4207D92E4C06E0002404E02C4C02E02B4C00E00024002C46D100F090F90390294B294AD358002B13DA234A0121300000F063
:40318000A5F900280ED10298FFF726FF019B002B0AD03B68002BFCDB00F0A0F9040004E01A4C02E0194C00E01C4C032D05D10121002000F063F90028F9D1039800F076F989
:4031C00019E000F063F905000F4A0121300000F07DF9002809D1019B002B08D03B68002BFCDB00F07BF9040002E0084C00E00B4C280000F05BF9200005B0F0BD100800084B
:40320000082B001001018800E807000805005200EF4902001C0500000000264001005000F0B54F464646C0B4824B1A685468B0235B055B78002B04D0B0235B055B78DBB284
:4032400000E02123212B67D1B023D15ACB005B1A116A8C46634419680029F5DADD6802212943D960B023D15ACB005B1A116A8C466344D968C9073ED5D9680904090C8C4663
:4032800084271168D559A84641440968090A0904FF26360431400D0088261168894691598846C14449460968090A0906294365462943D9601168D359C9180A685E4B9846CB
:4032C0001A4090252D012A430A605A4B99461A6813689C46925962441368414619400B002B4313604B461A681568D15969180B689359EB181B684F4B1A68B021555AEB00D8
:403300005B1B156AAC46634400255D60156A515ACA00531AEB185B68484A116904230B431361012801D030BF00E020BF414B1A68B023D15ACB005B1A116A8C466344196898
:403340000029F3DAB02149054978002904D0B02149054978C9B200E02121212932D1D968C90722D510688421525880180468324A1440DB681B0C1B02FF2109020B402343AA
:4033800003602C4B19688823C8580B689C46604403681A400D6AB023CC5AE1000B1BEB18DB681B0E1B021A430260224B1A68106AB023D15ACA00531AC318DA6802218A43BC
:4033C000DA6028E086235B00E358002B23D11C4807681C4BA321C9005E581B4A904615681A4A0260062058503E21424611600631174A9950164B134AD358002BFADA154A44
:4034000086235B00E2500E4B1F60A323DB000D4AD6500D4B1D60074B1A68106AB023D15ACA00531AC31800225A600CBC90469946F0BDC04610080008FF00FFFF00ED00E037
:403440000801264000002640040126401E1F00001C050000AAAAAAAA0000000001B40248844601BC604700BF3504001001B40248844601BC604700BFCD10001001B40248F9
:40348000844601BC604700BF5D0E001001B40248844601BC604700BFD318001001B40248844601BC604700BFE90E001001B40248844601BC604700BFDB18001001B40248DC
:4034C000844601BC604700BF5517001001B40248844601BC604700BFD10C001001B40248844601BC604700BF050B001000000000000000000000000000000000000000007E
:40350000000000000000000000000000000000000000000000000000000000000000000000000000000000000000000000000000000000000000000000000000000000008B
:40354000000000000000000000000000000000000000000000000000000000000000000000000000000000000000000000000000000000000000000000000000000000004B
:40358000000000000000000000000000000000000000000000000000000000000000000000000000000000000000000000000000000000000000000000000000000000000B
:4035C00000000000000000000000000000000000000000000000000000000000000000000000000000000000000000000000000000000000000000000000000000000000CB
:020000041008E2
:4000000000780408EB0208100D00000051030810510308105103081051030810000000000000000000000000000000004D0308104D030810000000004D0308104D030810DA
:400040004D0308104D0308104D0308104D0308104D0308104D0308104D0308104D0308104D0308104D0308104D0308104D0308104D0308104D0308104D0308104D03081000
:400080004D0308104D0308104D0308104D0308104D0308104D0308104D0308104D0308104D0308104D0308104D0308104D0308104D0308104D0308104D0308104D030810C0
:4000C0004D0308104D0308104D0308104D0308104D0308104D0308104D0308104D0308104D0308104D0308104D0308104D0308104D0308104D0308104D0308104D03081080
:400100004D0308104D0308104D0308104D0308104D0308104D0308104D0308104D0308104D0308104D0308104D0308104D0308104D0308104D0308104D0308104D0308103F
:400140004D0308104D0308104D0308104D0308104D0308104D0308104D0308104D0308104D0308104D0308104D0308104D0308104D0308104D0308104D0308104D030810FF
:400180004D0308104D0308104D0308104D0308104D0308104D0308104D0308104D0308104D0308104D0308104D0308104D0308104D0308104D0308104D0308104D030810BF
:4001C0004D0308104D0308104D0308104D0308104D0308104D0308104D0308104D0308104D0308104D0308104D0308104D0308104D0308104D0308104D0308104D0308107F
:400200004D0308104D0308104D0308104D0308104D0308104D0308104D0308104D0308104D0308104D0308104D0308104D0308104D0308104D0308104D0308104D0308103E
:400240004D0308104D0308104D0308104D0308104D0308104D0308104D0308104D0308104D0308104D0308104D0308104D0308104D0308104D0308104D0308104D030810FE
:400280004D0308104D0308104D03081010B5054C237833B9044B13B10448AFF300800123237010BDEC48020800000000804A0810084B10B51BB108490848AFF3008008484D
:4002C000036803B910BD074B002BFBD0BDE81040184700BF00000000F0480208804A0810B4420208000000007047FFF7FDFF72B6104C114DAC4209DA21686268A368043B92
:40030000A2BFC858D050FAE70C34F3E70B490C4A00209142BCBF41F8040BFAE709480A490860BFF34F8F00F081FA00F05BFA00F00BF9FEE7844A08109C4A0810EC48020899
:40034000244C02080040020808ED00E0FEE7FEE700B504207146084202D0EFF3098001E0EFF30880043001F059FDFEE7000000002DE9F0412DED028B82B0082269466C48AB
:4003800001F086FE009DB3EE047ADDED017A67EE877A9FED687A87EE278A18EE100A03F0B1FB02F0A1F803F0C3FE07EE900AF8EE677A78EE677A9FED607A67EE877A17EE81
:4003C000900A03F09FFB02F017F903F0B1FE804600242EE0284603F095FB4FA3D3E9002303F00EFD4EA3D3E9002303F0DFFB06460F46204603F064FB4BA3D3E9002303F0C4
:40040000D5FB02F047F900224C4B03F0CFFB00224A4B03F019FA02460B463046394603F0C5FB02F0E9F803F083FE454B43F824000134132CCED9434B1B68986893F87130B8
:4004400002219940032202FA03F30B4043F08043C0F80034FCEEC87A17EE903AB3F5803F1FD2B8F11F0F1CD836490A689468B2F87800225822F47F0222F47F421B0223F0F7
:400480007F4323F0FF03134323500B689868B3F87810435823F0F8024FEAC803DBB213434350284B19688C6891F87300032303FA00F591F8702091F87200824045EA0200D1
:4004C00091F871200225954003FA02F205EA0203034343F00043C4F800348B68D3F80034134BD3F8042342F48032C3F80423D3F8042322F48032C3F80423D3F80423012298
:40050000C3F8C02FD3F8C03F02B0BDEC028BBDE8F08100BFAFF300806666666666660A400000000000FEAF40BEBCA37B2F1BD43F0000664020BC3E4C000000420000E03F6B
:40054000384B0208E84B020838B562B600241EE0204603F0B5FA39A3D3E9002303F026FB02F098F800222C4B03F020FB00222A4B03F06AF926A3D3E9002303F017FB02F0FE
:400580003BF803F0D5FD254B43F824000134132CDED900F0C7F900F097F900F0DBF901F037FF00F065F91E491E4801F06DFF1E491A4800F009FA1D4C1D49204601F0C0FB19
:4005C000B4F90030002B08DB5A0903F01F00012181406032174840F82210002B08DB590903F01F03012202FA03F3124A42F821304FF4FA7001F0DEFB0F4C0225A5604FF49B
:40060000FA7001F0D7FB6560F2E700BFAFF300800000000000E06F400000E03F384B02084002664080011D4104011441FC4108107103081000E100E080033240BEBCA37B83
:400640002F1BD43F08B5012001F0E2F908BD00BF704700BF5C4AD2F8803303F00F0303F1D00152F8212002F00702032A04D0042A05D092B9554914E0554A116811E003F128
:40068000C002514951F8222002F01F02112A06D0132A04D04FF4FA4103E04E4901E04FF400418BBB484BD3F8902502F00100D3F88825C2F30172D3F8883513F0405F07D0D4
:4006C000414BD3F88835C3F30173012B02D102E0012300E0002303B108B9032A46D13A48D0F88025C2F31103D0F88425C2F30C02D0F88005C0F300600130B1FBF2F202FBF1
:4007000003F2B2FBF0F131E0012B2FD12E4BD3F8402602F00100D3F80026C2F30172D3F8003613F0405F07D0274BD3F80036C3F30173012B02D102E0012300E0002303B170
:4007400008B9032A12D12048D0F8002602F07F02D0F80036C3F30423D0F80006C0F3044002FB01F2B2FBF3F2B2FBF0F1164BD3F88033C3F3011321FA03F215494A60164810
:40078000D0F89030C3F3072301330069000E0130B2FBF0F08860B2FBF3F3CB600B6103F5742202F23F220D48A0FB0202C2F387420A7503F2E7330A4AA2FB03239B098B61CC
:4007C000DB03CB61704700BF0000264000127A008C42020800366E010000214083DE1B43D34D621008B50D4801F030FCFFF730FFFFF730FF00221146042000F0D1FE084833
:4008000000F064FF074B1B6893F8513013B1064800F0CCFF00F00EFE08BD00BFBC46081008490208E84B0208C041081008B501F050FB074AD2F8883043F47003C2F8883084
:40084000BFF34F8FBFF36F8F01F047FB08BD00BF00ED00E038B50546044C0021204601F0EDF9A968204601F0E9F838BD00001D4108B5074B5B6813F4802F04D00121044868
:4008800001F024FA08BD0021014801F01FFA08BD00001D4108B5084B1B7963B90749084801F04EFA044B5B792BB90122024B5A710448FFF7CFFF08BD884A0208F50808102C
:4008C000F44108104042081008B5084B1B7913F0010F06D1FFF7DEFF044A137943F001031371034801F0E2F908BD00BF884A020800001D4110B5094BD3F81042072C04D900
:4009000040F23161064801F079FA044BC3F81042D3F81022D3F8103210BD00BF00001D410442081008B5084B1B783BB9074A0021074801F0D5FA0122034B1A70044B01220E
:400940009A609A6108BD00BF8E4A0208C84208100000384008B5084B1B7833B90749084800F044FA0122044B1A70054A136843F00043136008BD00BF904A02082C43081087
:400980000000144110B584B00C4C0D49204600F0E1FA009400218DF80410012302938DF80C108DF80D10074C6A46204600F00AFC236843F00043236004B010BD984A020870
:4009C000604308100000284038B505460C46114B1B7E23B9FFF7D6FF01220E4B1A760D4B5D609C600C4B1B6893F8333023B940F2FA510A4801F002FA074B1B68B3F85A3027
:400A000003F1804303F520131A6842F000421A6038BD00BF984A0208E84B020890430810002800F0E081F0B5032840F0D980032921D809B9072A0AD9012901D10F2A06D9BB
:400A4000022901D1032A02D9032914D19AB9BA4B1D68AE6895F8710001FA00F7032404FA00F307EA030095F870301340034343F08043C6F80034B04B1B6893F83F0037281C
:400A80001ED903291CD809B9072A0AD9012901D10F2A06D9022901D1032A02D903290FD172B99D6893F8710001FA00F6032404FA00F0304093F8703013400343C5F8DC3CE9
:400AC000012922D871B9072A56D89B4B18688468B0F87430234453F8220020F47F4043F8220049E0012947D10F2A45D8924B1B689868B3F87630184450F8223023F47F03A6
:400B000023F47F4340F8223036E002291BD1032A32D8894C23689868B3F87830184450F8223023F47F0323F47F4340F8223020688468B0F87830234453F8220020F0F800A9
:400B400043F8220018E0032916D1AAB97A4C20688568B0F87A302B4453F82200C0B243F8220020688468B0F87A30234453F8220020F0F80043F82200032900F2338109B9DF
:400B8000072A0DD9012901D10F2A09D9022901D1032A05D9032940F02581002A40F02281654B1D68AC6895F87360032000FA06F795F8703095F8726003FA06F63E4395F8AA
:400BC0007170B940B840014031431A4041EA020343F00043C4F80034AB68D3F80034F0BD032921D809B9072A0AD9012901D10F2A06D9022901D1032A02D9032914D19AB947
:400C00004D480668B76896F8714001FA04FE032505FA04F00EEA000496F870001040204340F08040C7F800044348006890F83F40372C1ED903291CD809B9072A0AD9012967
:400C400001D10F2A06D9022901D1032A02D903290FD172B9866890F8714001FA04F7032505FA04F43C4090F8700010402043C6F8DC0C012932D8A9B9072A00F28480FF2B5E
:400C800000F281802C480468A568B4F87400284450F8224024F47F441B029BB2234340F8223070E001296ED10F2A6CD8B3F5803F69D2214800688468B0F87600044454F8A2
:400CC000220020F47F0020F47F401B0223F07F4323F0FF03034344F8223054E002292DD1032A50D8B3F5803F4DD205981F284AD8114D28688468B0F87800044454F82200A3
:400D000020F47F0020F47F401B0223F07F4323F0FF03034344F822302B689868B3F87830184450F8223023F0F804059BDB00DBB2234340F8223026E0E84B0208032922D12D
:400D40000ABBB3F1807F1ED205981F281BD8264D28688468B0F87A00044454F82200C0B240EA032344F822302B689868B3F87A30184450F8223023F0F804059BDB00DBB238
:400D8000234340F8223003292CD809B9072A0AD9012901D10F2A06D9022901D1032A02D903291FD1F2B9104B1D68A86895F87360032404FA06F795F8703095F8726003FA62
:400DC00006F63E4395F87170B940BC40214031431A4041EA020343F00043C0F80034AB68D3F80034F0BD7047E84B020870B582B00C46054618B94921544800F0FFFF1CB911
:400E00004A21524800F0FAFF002D00F09A80002C00F099802378012B03D958214B4800F0EDFF636833B1B3F1807F03D05921474800F0E4FF237A042B03D95A21434800F02E
:400E4000DDFF638963B1B3F5807F09D0B3F5007F06D0B3F5407F03D05B213C4800F0CEFFE3687BB1B3F5800F0CD0B3F5400F09D0B3F1006F06D0B3F1086F03D05C213348F9
:400E800000F0BCFF237C012B03D95D212F4800F0B5FF636933B1B3F1804F03D05E212B4800F0ACFFA3693F2B03D95F21274800F0A5FFA36903F03F0263891343217A8A1E2A
:400EC000D2B2022A01D843F08053042901D143F000536268134362691A43E66816432378012B02D10023012201E001230022217C012902D142F4807201E043F4807394F88F
:400F00002410A9620121A962C5F8B020C5F8B430E369C3F30B03C5F80031236AC3F30B03C5F8043194F8253043B1E36AA26A94F82610207A246B0094FFF772FD2E60002016
:400F400002E0034800E0024802B070BDCC43081001006600002800F0248138B50546002900F021810C460B78032B03D95721914800F044FF6378032B03D958218D4800F077
:400F80003DFFA378032B03D959218A4800F036FF2379032B03D95A21864800F02FFFA379012B03D95B21834800F028FFE379012B03D95C217F4800F021FFE378012B03D9B5
:400FC0005D217C4800F01AFF6379022B03D95E21784800F013FF237A032B03D95F21754800F00CFF237803F003016278930003F00C030B43A278120102F030021343227910
:401000009201D2B21343A279920602F080621343E279D20602F000621343E278120602F0807213436279120702F040521343227A43EA82732B60E3686B602369AB60237A7C
:40104000032B00F2B280DFE803F002063388E36AEB60002038BD636903F50063B3F5805F03D37821534800F0C9FEA36903F50063B3F5805F03D379214E4800F0BFFEE36998
:40108000013BFF2B03D97A214A4800F0B7FE6369C3F30B02A369484901EA03331A43E369013B42EA0363EB60E36A2B61002038BD636903F50063B3F5805F03D387213D486E
:4010C00000F09CFEA36903F50063B3F5805F03D38821384800F092FEE369013BFF2B03D98921344800F08AFE236A03F50063B3F5805F03D38A212F4800F080FE636A03F533
:401100000063B3F5805F03D38B212A4800F076FEA36A013BFF2B03D98C21264800F06EFE6269C2F30B01A269234B03EA02320A43E169013942EA0162EA60226AC2F30B0289
:40114000616A03EA01331343A26A013A43EA02632B61E36A6B61002038BD184B1B6893F82A30012B23D9636903F50063B3F5805F03D3A1210F4800F041FEE369013BFF2B29
:4011800003D9A2210B4800F039FE6369C3F30B03E269013A43EA0263EB60E36A2B61002038BD07487047064838BD054838BD044838BD00BF0C44081000F0FF00E84B020816
:4011C00001004E00002860D0F8B50346002A5ED0106800285DD03148006890F83300884259D91E4614460D469368032B03D9EF212B4800F003FE2768284B1B6893F8333098
:401200009D4204D340F2E151264800F0F7FD234B1A68B2F85A309919B2F85C3005FB0313DF60B2F85A10B2F85C30314405FB03118B681B0C1B048B60B2F85A301E44B2F8AA
:401240005C1005FB01F123792BB192F85F70012303FA07F700E00027A06892F85E50A8400322AA4000EA02033B43227B12B14FF0004200E000221343627B0AB1042200E09E
:401280000022134373500020F8BD074870470648F8BD0548F8BD0448F8BD00BFE84B02080C4408104844081001004E001F4B98422DD00CD840282ED003D8E8B1102828D08C
:4012C0002FE0802829D0B0F5807F28D029E0184B984228D006D8B0F1204F0DD0154B984212D01EE0144B98420AD00133984209D0023B984215D101E0002070470F487047C2
:401300000F4870470F4870474FF4A0007047074870470D4870470D4870470D487047034870470C4870474FF4A400704706005200010000F0090000A0040000F001005200E9
:401340000200520003005200010050000200500005005200FF00520038B5124B1B6893F83130012B04D840F2C3110F4800F046FD0C4B1D682A6AB5F8B03013442C46D5F895
:40138000B420D358002B0BDB084B1868FFF78EFF6B6801229A6063689B68002BFBD138BD034838BDE84B020884440810B44A0208020050001A4B186128B102230370FF23F5
:4013C000437000234380174B1B6893F850202AB300B583B0B3F93830ADF80030002301931149684600F0ACFCBDF90030002B08DB590903F01F03012202FA03F30B4A42F860
:401400002130084B1B6893F8513023B102220849012000F077FA03B05DF804FB704700BFB44A0208E84B02082543020800E100E0DD43020808B50248FFF7BCFF08BD00BF53
:40144000C84A020838B50B4B1B68D3F8B4301B58002B0DDA0D4604460B0C1B0423B140F2D521054800F0CAFCA9B26160002038BD024838BDE84B0208C444081001008A002C
:4014800038B50368002B01DA002300E0094B73B90D460446C2600B0C1B0423B140F2BB21054800F0ABFCA9B2A160002038BD014838BD00BF01008A00C444081038B5044640
:4014C0000D4619B99921084800F098FC074B1B68D3F8B4301B59002B03DAE3682B60002038BD034838BD00BF04450810E84B020801008A00254B1B6893F8313083423AD96F
:4015000000293AD00B6813F01F0F38D170B50D4604461E4B1B6893F83130984204D340F2C3111B4800F06AFC184B1B68186AB3F8B03004FB0304174E34602A68D208002142
:40154000686802F015FE00212046FFF77BFF346825B940F293310E4800F050FC2A4600212046FFF78DFF60B900210A4B1868FFF769FF40B970BD0848704707487047064836
:401580007047064870BD054870BD00BFE84B0208C4440810CC4A020803018A0001018A0010B504461346B2B9A9B9124B1B6893F83130984204D340F2C3110F4800F01EFC10
:4015C0000C4B1B681A6AB3F8B03004FB03240B4B1C60002010BD43B149B1084A51609360111D2046FFF786FF10BD054810BD044810BD00BFE84B0208C4440810CC4A0208EE
:4016000003018A002DE9F0411B4B1B68DC68236883422CD90D464609A0EB4610012303FA00F819B900F055FC074600E00027124B18680368002B01DA002300E00F4B83B969
:40164000626852F8263018EA030F05D023EA080342F82630002400E0094C0021FFF7F2FE00E0084C25B9384600F037FC00E0064C2046BDE8F08100BFCC4A020801008A0044
:40168000020188000301880004018A000B4B1B68DB681A6882420CD94109A0EB4110012202FA00F05B6853F82130184203D004487047044870470448704700BFCC4A020894
:4016C0000101880004018A0000018800024B1B680BB9014B18607047D84A02082DE9F8430446884691461D46089F2C4B1B681BB9B5212B4800F082FB284B1B682C2000FB02
:4017000004F01C18EEB21E50C5F3072363602D0CA560244B1B6893F831309E4204D340F2C311214800F06AFB1E4B1B68196AB3F8B02006FB02162661666893F832309E4212
:4017400004D340F2DF11184800F058FB154B1B681D6A803605EB46156561A668330C1B0423B14FF4FF71104800F048FB330C1B0423B140F2FF110C4800F040FBB3B243EA99
:401780000646AE60C4F81C90C4F820800023A36117B1B7F90030A381BDE8F883D84A020844450810E84B0208C4440810F0B58FB0044618B95221274800F020FBA369072BA4
:4017C00003D95621234800F019FBE36A1BB95821204800F013FB236B1BB959211D4800F00DFB07AD04F114060FCE0FC537682F6002AD26460FCE0FC533682B60164B1B6876
:40180000B3F93620079B1344ADF83030089B0D93A26AE16A0CAD00953B460A98FFF75EFF00210091069B0A460598FFF757FF216B284600F085FABDF93030002B08DB5909CF
:4018400003F01F03012202FA03F3044A42F821300FB0F0BD44450810E84B020800E100E0F8B506460F461D4614461AB9FD211F4800F0C4FA1E4B1B681BB9FE211B4800F017
:40188000BDFA1B4B1B682C2101FB063001FB07314B68012202FA03F31B04466802FA06F60269EAB18F69EFB91268002A01DA002200E0104AC2B92288134323600369DC6021
:4018C00001238B614D620469330C1B0423B140F2BB21094800F092FAB2B2A2600020F8BD0648F8BD0648F8BD0548F8BD44450810D84A020801008A00C444081004028A0064
:4019000007028A00F8B505460F4616460E4B1B6823B94FF4AF710D4800F070FA0A4B1B682C2404FB0534236A23B94FF4B171074800F064FAE369B34204D9236A43F826705A
:401940000020F8BD0248F8BDD84A0208444508100A028A0070B582B000230193044620B940F2D111284800F049FA236923B94FF4E971254800F042FA636923B940F2D311EC
:40198000214800F03BFA236A23B94FF4EA711E4800F034FA6369DD682A0C20D012041A601B682069194B1B68D3F8B430C358002B15DA01A9FFF782FD60B9019803681E0C0A
:4019C000DBB2E269934206D2226A52F8233013B1984700E0002631462069FFF733FDADB275B16369ADB21D601B68636A1BB198470023636202E0A36A03B198470023A361B1
:401A000063691B6802B070BD44450810E84B020810B50446074B1B6823B940F2B111064800F0ECF9034B1B682C2000FB0430FFF791FF10BDD84A0208444508102DE9F84306
:401A40000E46074618B93A21754800F0D7F91EB93B21734800F0D2F9002F00F0DA80002E00F0DA8032686F4B13401BB14A216C4800F0C4F972686C4B13401BB14B21684877
:401A800000F0BCF9B36813F0FC2F03D04C21644800F0B4F9F36813F0FC2F03D04D21604800F0ACF9337D032B03D94E215C4800F0A5F9B369B3F5803F03D34F21584800F0F4
:401AC0009DF9F36D072B03D95021554800F096F9336EB3F5803F03D35121514800F08EF9736EB3F5803F03D352214D4800F086F9736843F000437B60B3683B61F3687B6146
:401B00003369BB61337D9B07FB61B3693B62336803F46068736803F00409002435E02546A31D06EB83035A68404B13401BB163213B4800F063F9AB1D06EB8303596805F1C1
:401B4000200247F822105B6813F0012F0BD1B8F5606F08D1B9F1000F05D04FF47842344B23F8152003E00022314B23F81520726F02F11C7303F58033520093FBF2F31BB2E0
:401B80002C4A42F825300134E4B20F2CC7D9F36DC7F81832F36DC7F81032336EC7F82832336EC7F82032736EC7F83832736EC7F8303296F87030DBB1B36EB3F1804F03D314
:401BC0008221174800F01AF9F36E23F44F0323F0FF031BB18321124800F010F96FF04043C7F80433B36EC7F80033F36EC7F84433D7F8003F3F2B02D0D7F8003F13B90B236A
:401C0000C7F8003F336843F400133B600020BDE8F8830948BDE8F8830748BDE8F88300BF844508100811DF0001FE302088CA887E884B0208A84B02080100060038B50D46A6
:401C4000044618B9B521174800F0D8F82CB30023236063604FF0031222616261A361E361236206E003F12002002144F822100133DBB20F2BF6D90023C4F81832C4F8283211
:401C8000C4F838325DB16FF04043C4F804330020C4F84003C4F8440338BD034838BD002038BD00BF844508100100060008B50368002B0ADBD0F8A032002BFBDB036843F097
:401CC00000430360022000F08DF808BD38B505460C46012904D940F27111064800F08EF8012C04D16B6843F480336B6038BD01236B6238BD8445081038B50D4B9A680D4BF4
:401D00009A420FD10D46044621B940F237110A4800F074F804F11003064A52F8230042F8235038BD1030054B53F8200038BD00BF00ED00E000400208C045081000000810E6
:401D400048B338B504460D464368072B03D93221134800F053F8B4F900306268002B08DB5201D2B203F1604303F5614383F8002305E003F00F035201D2B20A49CA540A4B58
:401D80009A680A4B9A4208D12946B4F90000FFF7B3FF002038BD06487047002038BD00BFC045081014ED00E000ED00E0004002080100560010B5044605E0084B186800F042
:401DC0007FF8A4F50044B4F5004FF6D8044B186800FB04F000F074F810BD00BFA8420208A442020808B5034B1B7800FB03F000F067F808BDA042020801BEFEE738B50D46CF
:401E0000044C18220146204602F0BAF9A5610020FFF7F2FF58480208FEE700BF08B50268254BDA6142681A6282685A62C2689A620269DA6242691A6382695A63C2699A6308
:401E40001E4A916AD963D16A1964516A5964516B9964926BDA64F1EE103A13F0900F27D0026A154B1A65426A5A65826A9A65C26ADA65026B1A66426B5A66826B9A66C26B5D
:401E8000DA66026C1A67426C5A67826C9A67C26CDA67026DC3F88020426DC3F88420826DC3F88820C26DC3F88C20026EC3F89020FFF7B2FF08BD00BF5848020800ED00E0E9
:401EC0000230800803D001300238FCD100BF00BF7047EFF3108072B6704780F310887047002800F0AC8070B40446002A00F0A98092F828300BB1012500E00025137F0BB1C9
:401F0000022300E000231D431669B60406F4802645EA060395682D0405F440351D431668300600F0E0602843136B556B43EA45031B0503F440130343906B43EA8000052E7F
:401F400003D1D3681B029BB202E053681B029BB20343081D800123501368062B08D104EB81130120C3F808013F20C3F828011DE0936843B904EB81130020C3F808013120A6
:401F8000C3F8280112E0012B08D1506904EB8113C3F808011C20C3F8280107E004EB81130120C3F808011220C3F82801106A04EB8113C3F80C01506AC3F810015069C3F802
:401FC00014019069C3F81801136EB3F1FF3F17D0106C00F00F00966C360206F470663043156D2D0405F470250543906D000380B228431B01DBB2034304EB8110C0F820311F
:40200000D36B03F00303566C360106F030063343D56C2D0205F440752B43506D8001C0B21843D36D9B0003F00C03034304EB8114C4F82431D36AC4F83831002002E00248D1
:402040007047014870BC70470100B600014B1860704700BFE84B020810B4D0F8003303F00F03072B06D900230DE0D0F84043CC54013300E000239342F7D306E0D0F84043F8
:4020800021F8134001339342F8D35DF8044B704710B51446D0F80833C3F308039A4200D31C462246FFF7D8FF204610BD002800F0A48170B50546002900F0A18116460C4693
:4020C0000B78022B03D93F21A248FFF797FE637B023BDBB2062B03D940219E48FFF78EFEA37B3BB1022B05D0032B03D041219948FFF784FE94F82130012B03D94221954814
:40210000FFF77CFE94F82830012B03D943219148FFF774FE2378012B06D86368083B082B94BF0023012307E0A37F2BB16368013B062B94BF002301231BB145218548FFF772
:402140005DFEA368053B042B03D946218148FFF755FE6369FF2B03D947217E48FFF74EFEA369FF2B03D948217A48FFF747FEA37C6BB1237833B9A368092B05D1A37B2BB1AA
:40218000012304E0012302E0012300E000231BB14A217048FFF732FE636B23F4366323F00D031BB14C216B48FFF728FEE36B23F4EE6323F003031BB14D216648FFF71EFE63
:4021C0002378022B01D1A37F13B16268013A00E00022237F13B14FF4803100E00021A368082B02D84FF4006300E000230B4302F00F02134343F000732B60226B2B6813F43D
:40220000006F01D0802300E040239A4203D362215048FFF7F3FDA26B2B6813F4006F01D0802300E040239A4203D363214948FFF7E5FD626A2B6813F4006F01D0802300E030
:4022400040239A4203D364214248FFF7D7FD23781B0603F040732B64637F0BB1402200E00022A37C13B14FF4806300E000231343227C12B14FF4807200E000221343627C4F
:4022800012B14FF4007200E000221A43E36A013B1B0403F470231343627B013A02F007021343A27B120102F030021343AB64237B13B14FF4807200E00022E37B23B923782F
:4022C000022B03D1012302E0012300E0002313B14FF4007300E000231A43A368013B03F00F031343C5F80033227DA3691B0403F47F031343C5F81033E26AD5F8003303F06C
:402300000F0303339A4201D3102A03D97A211148FFF774FDE37F23B12378012B03D0002302E0002300E0012313B14FF4807200E00022637B013B03F007031A43A37B1B018F
:4023400003F0300313436B64237B2BB14FF4807203E000BFF84708100022A368013B03F00F0313432278012A02D14FF4803200E000221343C5F8003294F83030C5F80433F2
:4023800094F8203013B14FF0007200E0002294F82130012B02D14FF0807300E00023134394F82820012A02D14FF4803200E00022134394F8242013432B6594F83830C5F8DD
:4023C0000432636B23F4926323F002031B051B0DC5F8C83FE36B23F08C035B055B0DC5F8883F76B1002070603060B060F0603062F0623063044B736370BD0448704703484F
:4024000070BD002070BD00BFEFCDAB000160AA0008B5084B1B783BB9074A08490848FFF745FE0122034B1A70054A136843F00043136008BD184B0208EC4B02083848081076
:402440000000664010B584B00C4C0D492046FEF781FD009401218DF80410002302938DF80C308DF80D10074C6A462046FEF7AAFE236843F00043236004B010BD1C4B020850
:40248000784808100000284038B505460C46124B1B7E23B9FFF7D6FF01220F4B1A760E4B5D609C600D4B1B6893F83330012B04D840F2FA510A48FFF7A1FC084B1A68B2F8E4
:4024C0005A30B2F85C1003F1804303F520135A5842F000425A5038BD1C4B0208E84B020890430810000000002DE9F041C1F30A57A7F2FF35132D02460B460C46884606468E
:402500001CDC002D3FDB3A4F2F41864601EA070C5CEA0E0E17D034A3D3E9002301F094F90022002301F0D2FD20B1002C3FDB28EA0704002621463046BDE8F081332D06DD87
:40254000B5F5806F2FD010461946BDE8F081A7F213474FF0FF3E2EFA07F73842F3D022A3D3E9002301F070F90022002301F0AEFD0028DFD0002C20DB444626EA070621463B
:402580003046BDE8F08118A3D3E9002301F05CF90022002301F09AFD0028CBD0002C17DB00263446C6E701F04FF9BDE8F0814FF4801343FA05F5A844B9E7142D10D0012387
:4025C000C5F1340503FA05F5AE1928BF9844D3E724F00042074B324318BF1C460026A9E704F10108C8E700BF9C7500883CE4377EFFFF0F000000F0BFF8B5C1F30A56A6F2B6
:40260000FF35132D02460B460C46864610DC002D2EDB0F461E4929410B4226D04FF400242C413C4424EA0104002621463046F8BD332D05DDB5F5806F20D010461946F8BD90
:40264000A6F213464FF0FF3121FA06F63042F4D00123C5F1330503FA05F52D1828BFE41825EA060621463046F8BD0028D6D1E4E7013501F0004404D00026D6E701F0E4F846
:40268000F8BD44F07F5444F440140026CDE700BFFFFF0F0030B51F4A21F00043934287B01CDD1D4A934205DD02460B4601F0CAF807B030BD02AA00F033F800F00300012894
:4026C000DDE9042319D0022810D0D8B1DDE9020100F046FA01F1004107B030BD002300930022002300F068FF07B030BD0124DDE90201009400F060FFECE7DDE9020100F04E
:402700002FFAD5E70124DDE90201009400F054FFCEE700BFFB21E93FFFFFEF7F000000002DE9F04F944B21F0004B9B458FB006460F4640F38280914B9B450C46924626DC5E
:40274000002983A3D3E9002340F3A08101F07AF88B4B9B4504460D4600F084807EA3D3E9002301F06FF802460B46CAE900232046294601F067F878A3D3E9002301F062F8FC
:402780000125CAE9020128460FB0BDE8F08F7D4B9B4540F384807C4B9B4559DC4FEA2B55A5F21645ABEB05573946064601F098FC01F096F98046894642464B463046394621
:4027C000CDE9088901F03EF80022704B01F0EEF98946804601F084FC01F082F906460F4632463B4640464946CDE90A6701F02AF80022664B01F0DAF900220023CDE90C01BC
:4028000001F03CFC002800F06D81002330463946002201F033FC002814BF012302235C4A0192022100912A46514608A800F0C0FA002CC0F24981054606E000200021C2E9B8
:402840000067C2E90201002528460FB0BDE8F08F02460B4600F0F6FF0025CAE90201CAE90001F1E73EA3D3E9002300F0EBFF3EA3D3E900230D46044600F0E4FF02460B4685
:40288000CAE900232946204600F0DCFF36A3D3E9002300F0D7FF0125CAE90201D4E700F041FF33A3D3E9002306460F4601F07EF90022384B00F0C8FF01F012FC054601F008
:4028C0000FF923A3D3E90023CDE9040101F06EF902460B463046394600F0B4FF1EA3D3E9002380468946DDE9040101F05FF91F2DCDE9020152DC284B6A1E53F822309B45F3
:402900004CD002460B464046494600F09BFF06460F46CAE9006732463B464046494600F091FFDDE9022300F08DFF002CCAE902018ADA07F1004401F100436D42CAF800600B
:40294000CAF80440CAF80800CAF80C307CE700BF00004054FB21F93F3163621A61B4D03D0000601A61B4D03D7370032E8A19A33B83C8C96D305FE43FFB21E93F7BD902400F
:40298000FB21F93FFB213941FFFFEF7F00007041284908100000E03FA8480810DDE902234046494600F04EFF4FEA2B5BC1F30A53C3EB0B0306460F46102BCAE90067AADD1A
:4029C0005DA3D3E90023DDE9040101F0EFF806460F4602460B464046494600F033FFCDE9060102460B464046494600F02BFF32463B4600F027FF52A3D3E9002306460F46DB
:402A0000DDE9040101F0D2F832463B4600F01AFF0B46CDE902010246DDE9060100F012FFC1F30A53C3EB0B0B06460F46BBF1310FCAE9006776DD45A3D3E90023DDE904018D
:402A400001F0B4F806460F4602460B46DDE9060100F0F8FE02460B4680468946DDE9060100F0F0FE32463B4600F0ECFE39A3D3E9002306460F46DDE9040101F097F8324601
:402A80003B4600F0DFFECDE902013AE700F0DCFE2D4B9B4504460D4626D025A3D3E9002300F0D2FE02460B46CAE900232946204600F0C8FE1EA3D3E9002300F0C5FE4FF046
:402AC000FF35CAE90201BFE6DAF80420DAF80C3002F1004203F100434542CAF80420CAF80C30B1E603239AE613A3D3E9002300F0ABFE13A3D3E900230D46044600F0A4FE3D
:402B000002460B46CAE900232946204600F09AFE0BA3D3E9002300F097FE4FF0FF35CAE9020191E6DDE90689F5E600BFAFF300803163621A61B4D03D0000601A61B4D03D38
:402B40007370032E8A19A33BFB21F93F0000002E8A19A33BC14920259A837B39000000002DE9F04F21F00048B8F1795F85B006460F4692469B466BDA01F0B2FA002800F0E5
:402B8000EA8032463B463046394601F00FF874A3D3E9002304460D4601F008F872A3D3E9002300F051FE22462B4600F0FFFF70A3D3E9002300F046FE22462B4600F0F6FF63
:402BC0006DA3D3E9002300F03FFE22462B4600F0EDFF6BA3D3E9002300F034FE22462B4600F0E4FF68A3D3E9002300F02DFE22462B4600F0DBFFCDE900010022664B2046B1
:402C0000294600F0D3FFDDE90023804689462046294600F0CBFF524604460D465B463046394600F0C3FF02460B462046294600F009FE02460B464046494600F003FE02468D
:402C40000B460020554900F0FDFD05B0BDE8F08F02460B4600F0AAFF41A3D3E9002304460D4600F0A3FF40A3D3E9002300F0ECFD22462B4600F09AFF3DA3D3E9002300F0B2
:402C8000E1FD22462B4600F091FF3BA3D3E9002300F0DAFD22462B4600F088FF38A3D3E9002300F0CFFD22462B4600F07FFF36A3D3E9002300F0C8FD2B46224600F076FFA1
:402CC000374B9845CDE9000197DD364B984539DCA8F500130022002030499046994600F0B1FDCDE9020100222B4B2046294600F05DFF42464B4600F0A5FDDDE9002380464D
:402D000089462046294600F051FF524604460D465B463046394600F049FF02460B462046294600F08FFD02460B464046494600F089FD02460B46DDE9020100F083FD05B017
:402D4000BDE8F08F9FED127B4FF000088DED027BDFF85490C7E71149002005B0BDE8F08FD43888BEE9FAA8BDC4B1B4BD9EEE213EAD529C804F7E923E9015CB19A001FA3E97
:402D80007751C1166CC1563F4C5555555555A53F000000000000E73F0000E03F0000F03F3233D33F0000E93F0000D23F000000002DE9F04FADF51B7D7D4CA49E7D4D54F805
:402DC000264007942646D41E85FB0475E417C4EBA50424EAE4741D460A93631CA3EB8303013D02EBC30306932B460B940095651BF4180390089116D42C44013422AEA59FA5
:402E000008E057F8250000F06BFE0135A542E6E8020108D0002DF4DA013500200021A542E6E80201F6D1079B002BC0F2B483079B039ADDF800A003F1010B0A9B0DF5E479B8
:402E4000DB00049309EBCB0B02EB0308009B002BC0F28A8122AB03EBCA05039C08350026002775E90223F4E8020100F09FFE02460B463046394600F0E7FC444506460F466E
:402E8000EFD1E9E80267D9450AF1010ADED107990498039C049101F18043023B9B0020441A1D83460EA8024403440D920C93049A9AA901EBC203002A53E9284529DD0DF5F6
:402EC000E47A0AEBC2080DF1340900223A4B2046294600F06BFE01F003F900F001FE0022364B06460F4600F061FE02460B462046294600F0A7FC01F0F3F878E9022349F892
:402F0000040F3946304600F09FFCD04504460D46DBD1DDF81890204629464A4600F008FC00224FF07F5304460D4600F03FFEFFF7DBFA0022224B00F039FE02460B4620464D
:402F4000294600F07FFC0D46044601F0C9F8804600F0C6FD0B4602462946204600F072FC4B46002B06460F4640F3E480049A0EA9013AC9F1180351F8225045FA03F101FAA1
:402F800003F30EA8EB1A40F82230C9F11705884443FA05F5002D40DD049B002B08F1010840F3C382002214460DA90498AE4611E0304A0810ABAAAA2A0000703E00007041A2
:402FC00000002040C3F180750BB10D600124013290420DDD51F8043F002CF3D0C3F1FF13013203F57F4390420B604FF00104F1DC7546069B002B0EDD012B00F0A380022B31
:4030000009D1049B5A1E0EAB0EA953F82230C3F3150341F82230022D74D0002200233046394601F02BF8002800F04582049A079B501E834210DC02F18043013B0EAA0D9CE7
:4030400002EB8303002253F80419A34242EA0102F9D1002A40F0A480079B0EAA013B52F82330002B40F05F820C9A012352F8041901330029FAD0049AD31802F1010A9A45CA
:4030800009933CDC0B9B0A9A09990AEB0309049B984690448B1809F18049A59A09F1FF3902EB890922AA02EBC303049372AB02EBC80803EBCA0A59F8040F00F011FD009B19
:4030C000002BE8E802014FF000064FF0000711DB039C454675E90223F4E8020100F066FD02460B463046394600F0AEFB5C4506460F46EFD1049B9845EAE80267DBD1099B4C
:403100000493D4E632463B460020B14900F09AFB06460F46002C80D0069AAD49002000F007FB02460B463046394600F08BFB06460F4672E711D1049B0EAA013B52F82350B1
:40314000ED1527E7049B5A1E0EAB0EA953F82230C3F3160341F822305DE700229D4B00F0ABFF58B9054658E700260027E9E80267D9450AF1010A7FF469AE88E6049B002BD1
:4031800008F10108C8BF02253FF70CAF32463B4600208F4900F056FB022506460F463CE70EA9CDF8248051F820300699009018390246039506916BB900F18043013B0EA8D7
:4031C00000EB830353F80409013A18390028F9D000920691069A7E49002000F0A9FA009B002B04460D46C0F2BC81DA000DF5E4780EA901EB830608EB020B069204360BF1C2
:40320000080756F8040D00F06BFC22462B4600F0CDFC002267E902016F4B2046294600F0C5FC474504460D46EBD14AACDDF81C9004944FF0000AB9F1000FC0F22781DFF85B
:403240009C815D4660A3D3E9002300260027002403E0A24510DBF8E80223F5E8020100F0A5FC02460B463046394600F0EDFA0134A14506460F46ECDA049B03EBCA03ABF133
:40328000080BC3E9006770AB9B450AF1010AD2D1A49B049C032B00F28D80DFE813F0D900A100A1000400009B002B40F35781009B03F1005B069B0BF1FF3BE2184FEACB03BC
:4032C000D2E9008903F10802103304EB020AE5183AED027B42464B4651EC170B8DED047B00F0B2FA06460F4602460B46DDE9040100F0A8FA4B46424600F0A6FA65E902010F
:403300004CAB9D42B046B946CAE90067E0D1009B012B40F32381069B234493ED007B4FEACB0B0BF1100A8DED007BA2440BF1080B04EB0B05D0460DF59C7BCDF810A075E946
:40334000029ADDE900014A46534600F07DFA06460F4602460B464846514600F073FADDE9002300F071FA68E90201C345CDE90067C5E90067E3D1DDF810A0002000217AE9EF
:40338000022300F061FAD345F9D1039B002B00F0CE806268E368089F2568A4683D6002F1004203F1004301F100417A60FB60BC6038617961099B03F007000DF51B7DBDE882
:4033C000F08F00BFAFF3008000000040FB21F93F0000F03F0000E03F0000703E484A0810069D083525440020002175E9022300F02BFAA542F9D1039B002B4AD0089E02468F
:4034000001F1004386E80C000B460246D4E9000100F018FA009B002B0DDD4CAD0124F5E8022300F011FA009B0134A342F7DA039B002B00F0A58001F1004308990246C1E98D
:403440000223099B03F007000DF51B7DBDE8F08F069B009D0833002000211C4474E90223013D00F0F1F96B1CF8D1039B0246002B00F08C8001F100430899C1E90023099B73
:4034800003F007000DF51B7DBDE8F08F00260027F2E6089B0246C3E900010B46D4E9000100F0D0F9009C002C02460B46B5DC0899C1E90223C5E73946069F03957A423046D3
:4034C000CDF8248000F034F90022384B04460D4600F0F2FD002836D00022354B2046294600F064FB00F0FCFD064600F0F9FA00222E4B00F05BFB02460B462046294600F0DA
:40350000A1F900F0EDFD04990B4601331A4600933B46183306930B460EA941F82300134641F8236056E60123A5E5002461E5D4E90067D4E90223089DC5E90401C5E900675D
:40354000C5E9022336E72946204600F0C9FD049A00920EA941F822003CE64AAC0020002113E7A49B032B3FF625AF01A252F823F0A73508109F3508109F3508105B35081051
:403580000B4608990246C1E902235AE70B460899C1E9002373E70A9BDB00049377E4002000214AAC27E7002000215EE7000070410000703E000000002DE9F04F21F0004660
:4035C000B6F1795F85B004460D469046994604DA00F086FD002800F0858022462B462046294600F0E3FA06460F4602460B462046294600F0DBFA41A3D3E9002382468B46AC
:403600003046394600F0D2FA3EA3D3E9002300F019F932463B4600F0C9FA3CA3D3E9002300F012F932463B4600F0C0FA39A3D3E9002300F007F932463B4600F0B7FA37A3F0
:40364000D3E9002300F000F90E9BCDE900019BB30022294B4046494600F0A8FADDE90023CDE902015046594600F0A0FA02460B46DDE9020100F0E6F832463B4600F096FA8D
:4036800042464B4600F0DEF819A3D3E9002306460F465046594600F089FA02460B463046394600F0D1F802460B462046294600F0C9F805B0BDE8F08F02460B46304639467A
:4036C00000F074FA0AA3D3E9002300F0BBF852465B4600F06BFA22462B4600F0B5F805B0BDE8F08F2046294605B0BDE8F08F00BF495555555555C53F0000E03F7CD5CF5A64
:403700003AD9E53DEB9C2B8AE6E55A3E7DFEB157E31DC73ED561C119A0012A3FA6F810111111813F21F00041704700BF00000000F8B5C1F30A5604460D460B46174606BBDD
:4037400021F00043034325D00022354B00F02EFA344A974204460D460B462ADBC1F30A56363E3E4440F2FE72964228DC002E12DD23F0FF4323F4E00343EA06552046294665
:40378000F8BD40F2FF729642EBD102460B4600F05BF8F8BDF8BD16F1350F1DDA4CF250339F4222462B4625DC19A1D1E9000100F03DF817A3D3E9002300F0F8F9F8BD2246E8
:4037C0002B4615A1D1E9000100F030F812A3D3E9002300F0EBF9F8BD23F0FF4323F4E003363643EA06552046294600220E4B00F0DDF9F8BD08A1D1E9000100F017F806A398
:40380000D3E9002300F0D2F9F8BD00BFAFF3008059F3F8C21F6EA5019C7500883CE4377E00005043B03CFFFF0000903C03F0004321F0004242EA0301704700BF81F0004187
:4038400002E000BF83F0004330B54FEA41044FEA430594EA050F08BF90EA020F1FBF54EA000C55EA020C7FEA645C7FEA655C00F0E2804FEA5454D4EB5555B8BF6D420CDDB6
:403880002C4480EA020281EA030382EA000083EA010180EA020281EA0303362D88BF30BD11F0004F4FEA01314FF4801C4CEA113102D0404261EB410113F0004F4FEA0333B3
:4038C0004CEA133302D0524263EB430394EA050F00F0A780A4F10104D5F1200E0DDB02FA0EFC22FA05F2801841F1000103FA0EF2801843FA05F359410EE0A5F120050EF143
:40390000200E012A03FA0EFC28BF4CF0020C43FA05F3C01851EBE37101F0004507D54FF0000EDCF1000C7EEB00006EEB0101B1F5801F1BD3B1F5001F0CD349085FEA3000BC
:403940004FEA3C0C04F101044FEA445212F5800F80F09A80BCF1004F08BF5FEA500C50F1000041EB045141EA050130BD5FEA4C0C404141EB010111F4801FA4F10104E9D14D
:4039800091F0000F04BF01460020B1FA81F308BF2033A3F10B03B3F120020CDA0C3208DD02F1140CC2F10C0201FA0CF021FA02F10CE002F11402D8BFC2F1200C01FA02F171
:4039C00020FA0CFCDCBF41EA0C019040E41AA2BF01EB0451294330BD6FEA04041F3C1CDA0C340EDC04F11404C4F1200220FA04F001FA02F340EA030021FA04F345EA0301D9
:403A000030BDC4F10C04C4F1200220FA02F001FA04F340EA0300294630BD21FA04F0294630BD94F0000F83F4801306BF81F480110134013D4EE77FEA645C18BF7FEA655CD1
:403A400029D094EA050F08BF90EA020F05D054EA000C04BF1946104630BD91EA030F1EBF0021002030BD5FEA545C05D14000494128BF41F0004130BD14F580043CBF01F5F0
:403A8000801130BD01F0004545F0FE4141F470014FF0000030BD7FEA645C1ABF194610467FEA655C1CBF0B46024650EA013406BF52EA033591EA030F41F4002130BD00BF80
:403AC00090F0000F04BF0021704730B54FF4806404F132044FF000054FF0000150E700BF90F0000F04BF0021704730B54FF4806404F1320410F0004548BF40424FF000017C
:403B00003EE700BF42004FEAE2014FEA31014FEA02701FBF12F07F4393F07F4F81F06051704792F0000F14BF93F07F4F704730B54FF4607401F0004521F0004120E700BFAB
:403B400050EA010208BF704730B54FF000050AE050EA010208BF704730B511F0004502D5404261EB41014FF4806404F132045FEA915C3FF4DCAE4FF003025FEADC0C18BF19
:403B800003325FEADC0C18BF033202EBDC02C2F1200300FA03FC20FA02F001FA03FE40EA0E0021FA02F11444C1E600BF70B54FF0FF0C4CF4E06C1CEA11541DBF1CEA13553D
:403BC00094EA0C0F95EA0C0F00F0DEF82C4481EA030621EA4C5123EA4C5350EA013518BF52EA033541F4801143F4801338D0A0FB02CE4FF00005E1FB02E506F00042E0FBBC
